:020000040800F2
:10000000280400209D010008C5030008BD03000866
:10001000C1030008E5010008A9070008000000006E
:1000200000000000000000000000000015050008AE
:100030007102000800000000E90300082D06000816
:10004000B7010008B7010008B7010008B7010008B0
:10005000B7010008B7010008B7010008B7010008A0
:10006000B7010008B7010008B7010008B701000890
:10007000B7010008B7010008B7010008B701000880
:10008000B7010008B7010008B7010008B701000870
:10009000B7010008B7010008B7010008B701000860
:1000A000B7010008B7010008B7010008B701000850
:1000B000B7010008B7010008B7010008B701000840
:1000C000B7010008B7010008B7010008B701000830
:1000D000B7010008B7010008B7010008B701000820
:1000E000B7010008B7010008B7010008B701000810
:1000F000B7010008B7010008B7010008B701000800
:10010000B7010008B7010008B7010008B7010008EF
:10011000B7010008B7010008B7010008B7010008DF
:10012000B7010008B7010008B7010008B7010008CF
:10013000B7010008B7010008B7010008B7010008BF
:10014000B7010008B7010008B7010008B7010008AF
:10015000B7010008B7010008B7010008B70100089F
:10016000B7010008B7010008B7010008B70100088F
:10017000B7010008B7010008B7010008B70100087F
:10018000B7010008B7010008DFF80CD000F018F83C
:10019000004800476D0800082804002006488047F2
:1001A00006480047FEE7FEE7FEE7FEE7FEE7FEE75C
:1001B000FEE7FEE7FEE7FEE73106000889010008DA
:1001C000064C074D06E0E06840F0010394E80700A4
:1001D00098471034AC42F6D3FFF7DAFFAC080008BA
:1001E000CC08000800BFFEE710B586B00446012128
:1001F000084600F0FBF80121102000F007F9072263
:100200000921194800F0B7F807220A21164800F022
:10021000B2F84FF4C060049002208DF814008DF8FD
:10022000150000208DF8160001208DF8170004A994
:100230000D4800F058F800940020ADF80400ADF827
:100240000600ADF80800ADF80C000C20ADF80A006F
:100250006946064800F03AFA0121044800F01CFA09
:10026000002006B010BD0000000002400010014058
:100270007047000010B504466FF0040000F0C2F9AA
:10028000E11704EB5171C1F3C701074A1170104621
:10029000007800EB4001C1EBC0104FF6FF7101EA9E
:1002A000C0000249088010BD10000020120000208C
:1002B00070B504464FF40770B4FBF0F0C6B24FF4CB
:1002C0000770B4FBF0F100FB114505E04FF4077037
:1002D00000F094FA701EC6B2002EF7D115B1284670
:1002E00000F08CFA70BDF0B50A460021002300240E
:1002F00000BF3DE0012505FA01F3156805EA030496
:100300009C4234D105684F000326BE40B5430560CA
:1003100015794E00B5400668354305601579012D05
:1003200002D01579022D16D185684F000326BE40F4
:10033000B543856055794E00B54086683543856084
:10034000456801268E40B5434560456896798E40E4
:10035000B6B235434560C5684F000326BE40B5437D
:10036000C560D5794E00B540C6683543C560491CA7
:100370001029BFD3F0BDF0B5002300244D07ED0ECA
:1003800002FA05F3CE1000F1200555F826504E076D
:10039000F70E0F26BE40B543CF1000F1200646F8F9
:1003A0002750CE1000F1200555F8265045EA0304E9
:1003B000CE1000F1200545F82640F0BD00BFFEE755
:1003C00000BFFEE7704710B54FF4A06000F002F8E0
:1003D000002010BD02490143024A1160704700002D
:1003E0000000FA050CED00E07047000029B1064A54
:1003F00012680243044B1A6004E0034A1268824305
:10040000014B1A60704700003038024029B1064A9B
:1004100012680243044B1A6004E0034A12688243E4
:10042000014B1A607047000044380240F0B50021CB
:1004300000220024022500260223324F3F6807F0E5
:100440000C0121B1042905D0082937D105E02E4F30
:10045000076036E02D4F076033E02A4F3F1F3F68AB
:10046000C7F38056274F3F1F3F6807F03F036EB129
:10047000264FB7FBF3F7DFF88CC0ACF1040CDCF8C7
:1004800000C0CCF3881C07FB0CF40CE01E4FB7FB3C
:10049000F3F7DFF870C0ACF1040CDCF800C0CCF36B
:1004A000881C07FB0CF4174F3F1F3F68C7F3014739
:1004B0007F1C7D00B4FBF5F7076002E0124F076078
:1004C00000BF00BF0F4F3F6807F0F0010909104F50
:1004D0007A5C0768D74047600A4F3F6807F4E051ED
:1004E000890A0B4F7A5C4768D7408760054F3F68A1
:1004F00007F46041490B064F7A5C4768D740C760F4
:10050000F0BD0000083802400024F40000127A0018
:1005100000000020704700000CB500200190009002
:100520003448006840F480303249086000BF3148E8
:10053000006800F4003000900198401C0190009881
:1005400018B90198B0F5A04FF1D12A48006800F41D
:10055000003010B10120009001E0002000900098D0
:10056000012846D123484030006840F0805021499E
:10057000403108602048006840F440401E4908604F
:100580001C48083000681B490831086008460068AC
:1005900040F4004008600846006840F4A05008603D
:1005A0001648091F0860081F006840F08070091F86
:1005B000086000BF0F48006800F000700028F9D004
:1005C00040F205700E4908600A480830006820F0C3
:1005D00003000849083108600846006840F002003E
:1005E000086000BF03480830006800F00C000828CD
:1005F000F8D10CBD0038024000700040085440079C
:10060000003C0240042808D14FF0E021096941F084
:1006100004014FF0E022116107E04FF0E021096989
:1006200021F004014FF0E022116170477047000093
:1006300010B51548006840F470001349086013486D
:10064000006840F001001149086000200F4908319E
:1006500008600E4800680E4908400C4908600D48C3
:10066000091D0860081F006820F48020091F086029
:10067000002006490C310860FFF74EFF4FF0006084
:1006800001498039086010BD88ED00E00038024063
:10069000FFFFF6FE1030002421B1828942F400529F
:1006A000828104E082894DF6FF731A40828170478F
:1006B00002460020B1F5007F00D100BF13880B4037
:1006C0000BB1012000E00020704700002DE9FF473A
:1006D00005460E460024A14600BFA046B08900B1E1
:1006E00000BF2C8A24F44054F08804432C82AC8947
:1006F00041F20C608443B088318908437189084312
:100700000443AC81AC8A24F44074B0890443AC82C5
:100710006846FFF78BFE2048854202D01F4885427D
:1007200002D1DDF80C9001E0DDF80890A88900F412
:10073000004040B109EBC90000EB091031684900E5
:10074000B0FBF1F707E009EBC90000EB09103168D5
:100750008900B0FBF1F76420B7FBF0F00401200939
:10076000642101FB1078A88900F4004040B13220D8
:1007700000EBC800B0FBF1F000F00700044308E014
:10078000322000EB08106421B0FBF1F000F00F0004
:1007900004432C81BDE8FF87001001400014014094
:1007A000C1F308028280704700BFFEE7014A024998
:1007B00000F013B8490800081400002002E008C83F
:1007C000121F08C1002AFAD170477047002001E0CB
:1007D00001C1121F002AFBD170472DE9F0411646D6
:1007E0000F460446002503E03946B047641C6D1CE3
:1007F00020780028F8D12846BDE8F0810146114A4A
:1008000012884A434FF0E0235A6100229A611A4647
:10081000126942F001021A6100BF4FF0E022106934
:1008200000F001021AB100F48032002AF5D04FF036
:10083000E022126922F001024FF0E0231A61002247
:100840009A6170471200002070B504460D46E1B26F
:100850000548FFF7A5FF00BF80210348FFF728FFE9
:100860000028F9D0204670BD00100140FFF7ABFD15
:100870004FF4E130FFF7B8FCA820FFF7FBFC064877
:10088000FFF7D4FD06E04FF4FA70FFF711FD03A067
:10089000FFF78CFFF7E700001800002068656C6C1C
:1008A0006F20776F726C640D0A000000CC0800089E
:1008B0000000002018000000BC070008E408000841
:1008C0001800002010040000CC0700080000000001
:1008D00001020304010203040607080900000000E6
:0408E0000000000014
:040000050800018965
:00000001FF
